:100000000EC032C01CC055C01AC019C018C017C0DD
:1000100016C015C014C013C012C011C010C01124E6
:100020001FBECFE5D2E0DEBFCDBF20E0A0E6B0E04E
:1000300001C01D92A836B207E1F714D14CC1E0CF40
:1000400080B7896880BF87E28DBD89B7806489BF2A
:1000500008958AB5836A8ABD83B7826083BF18BC5E
:1000600087B3836087BB08951F920F920FB60F92DC
:1000700011248F939F93AF93BF93809160009091D1
:100080006100A0916200B09163000196A11DB11DB5
:100090008093600090936100A0936200B09363002E
:1000A000BF91AF919F918F910F900FBE0F901F90B6
:1000B00018951F920F920FB60F921124CF92DF92D4
:1000C000EF92FF922F933F934F935F936F937F93A2
:1000D0008F939F93AF93BF93EF93FF9380916400AF
:1000E00090916500A0916600B09167000196A11DF6
:1000F000B11D8093640090936500A0936600B09357
:1001000067008091640090916500A0916600B091B5
:10011000670084369105A105B10508F481C0F89403
:100120008091600090916100A0916200B0916300A5
:1001300010926000109261001092620010926300B1
:100140007894AC01BD01440F551F661F771F840FC3
:10015000951FA61FB71FAC01BD01440F551F661F99
:10016000771F440F551F661F771F6C017D01C40E5A
:10017000D51EE61EF71EC701B601660F771F881F42
:10018000991F660F771F881F991F2CE130E040E010
:1001900050E07FD0DA01C901880F991FAA1FBB1F49
:1001A000880F991FAA1FBB1F880F991FAA1FBB1F6B
:1001B000880F991FAA1FBB1F880F991FAA1FBB1F5B
:1001C000880F991FAA1FBB1F880F991FAA1FBB1F4B
:1001D000821B930BA40BB50B6C017D01CC0CDD1CB9
:1001E000EE1CFF1CC701B601620F731F841F951F11
:1001F00024EB34E140E050E04CD02F3F3105410585
:10020000510529F020F02FEF30E040E050E029BD0B
:1002100010926400109265001092660010926700C0
:10022000FF91EF91BF91AF919F918F917F916F91CE
:100230005F914F913F912F91FF90EF90DF90CF9082
:100240000F900FBE0F901F90189583E087B986E836
:1002500086B9089586B1806486B93699FECF84B197
:1002600095B10895F2DFECDEF4DE87B38B7F87BBB8
:1002700088B3846088BB85B7836085BF8BB7806493
:100280008BBF7894E7DF969587959695879588BD7F
:10029000F9CFA1E21A2EAA1BBB1BFD010DC0AA1F9C
:1002A000BB1FEE1FFF1FA217B307E407F50720F0DF
:1002B000A21BB30BE40BF50B661F771F881F991F5A
:1002C0001A9469F760957095809590959B01AC01A3
:0A02D000BD01CF010895F894FFCF9F
:00000001FF
